:020000040000FA
:10000000000083018A018D296B280310270D8207C8
:10001000851608000914080089140800091508004D
:100020000714080087140800881408000814080042
:10003000871508000715080008150800881508002E
:10004000071608008716080008160800881608001A
:10005000081708008817080006140800861408000E
:100060000615080086150800061608008616080002
:100070000310270D82078512080009100800891057
:1000800008000911080007100800871008008810F0
:10009000080008100800871108000711080008115F
:1000A00008008811080007120800871208000812CB
:1000B00008008812080008130800881308000610BA
:1000C00008008610080006110800861108000612B4
:1000D000080086120800A000030883120313A10081
:1000E0000408A2008C1E752895210B1D45290B11B3
:1000F0000F308100A90B45290430A9000030321CC3
:100100008828B10B8D2832103A20023E07208E2815
:10011000321D8E2832143211023E3A200430341C33
:100120009828B30B9D2834103A20023E07209E28C1
:10013000341D9E2834143411023E3A200830361CF7
:10014000A828B50BAD2836103A20023E0720AE286D
:10015000361DAE2836143611023E3A200C30381CBB
:10016000B828B70BBD2838103A20023E0720BE2819
:10017000381DBE2838143811023E3A2010303A1C7F
:10018000C828B90BCD283A103A20023E0720CE28C5
:100190003A1DCE283A143A11023E3A2014303C1C43
:1001A000D828BB0BDD283C103A20023E0720DE2871
:1001B0003C1DDE283C143C11023E3A2018303E1C07
:1001C000E828BD0BED283E103A20023E0720EE281D
:1001D0003E1DEE283E143E11023E3A201C30401CCB
:1001E000F828BF0BFD2840103A20023E0720FE28C9
:1001F000401DFE2840144011023E3A202030421C8F
:100200000829C10B0D2942103A20023E07200E2971
:10021000421D0E2942144211023E3A202430441C51
:100220001829C30B1D2944103A20023E07201E291D
:10023000441D1E2944144411023E3A202830461C15
:100240002829C50B2D2946103A20023E07202E29C9
:10025000461D2E2946144611023E3A202C30481CD9
:100260003829C70B3D2948103A20023E07203E2975
:10027000481D3E2948144811023E3A20AA0B452940
:10028000AB0B45292C1C34222C1022088400210899
:100290008300A00E200E0900AE002C14AE1F5F29B3
:1002A000AC1070392D02031D7A292E080F39AF00CA
:1002B0000B3C031C7A290310AF0DAC147A29AC1C3B
:1002C0007A29AC1003196F29053EB0003130840043
:1002D0002F08840730088000840A00157A293230FC
:1002E00084002F08840780010310AF0D2F0807201A
:1002F000023E072008008316243098000A30990037
:100300008312903098008C30840080160B17080000
:100310008C1E08001A088C128829ED211E227B21D0
:10032000882185189129A02191298C1E08001A087E
:100330008C12981C9E291812181695294C21952963
:10034000851DA429C421DE2925180800240884005D
:1003500084030310840D32308407001808001F1531
:100360001F19B0291E08A6000310A60CA60A24080F
:10037000840084030310840D313084072608800034
:10038000840A001525140800251C080025102408DF
:10039000840084030310840D0030840704080310D4
:1003A000AF0D0720AF0AAF0A07202408840084039A
:1003B0000310840D3230840780010800051EE129F6
:1003C000E929A5180800A514A40B08000C30A40006
:1003D0000800A51C0800A5100800031383128B0158
:1003E0008C018D018C30840080018D30840080016F
:1003F00026220130A4002510A510A601AD0104306D
:10040000A900AA01AB013422831281309F00831618
:100410000E309F001F30850000308600803087003E
:100420000030880009108910091180308100831282
:100430000F3081002622A0308B000800AD01051985
:100440002D168519AD16051A2D1708001730A700AF
:100450000520A70B282A052008001730A700052033
:10046000A70B2F2A05200800313084000C30A8008B
:100470008001840A8001840AA80B382A26220800F9
:00000001FF
