:020000040000FA
:10000000000083018A01BB296B280310270D82079A
:10001000851608000914080089140800091508004D
:100020000714080087140800881408000814080042
:10003000871508000715080008150800881508002E
:10004000071608008716080008160800881608001A
:10005000081708008817080006140800861408000E
:100060000615080086150800061608008616080002
:100070000310270D82078512080009100800891057
:1000800008000911080007100800871008008810F0
:10009000080008100800871108000711080008115F
:1000A00008008811080007120800871208000812CB
:1000B00008008812080008130800881308000610BA
:1000C00008008610080006110800861108000612B4
:1000D000080086120800A000030883120313A10081
:1000E0000408A2008C1E7528C3210B1D75290B1155
:1000F0000F308100A90B75290430A9000230321C91
:100100008B28B10B922832100720A700A703A70362
:1001100027083A209228321D9228321432110310F7
:10012000AF0D3A200630341C9F28B30BA62834109C
:100130000720A700A703A70327083A20A628341DF5
:10014000A628341434110310AF0D3A200A30361C9F
:10015000B328B50BBA2836100720A700A703A703BA
:1001600027083A20BA28361DBA283614361103104B
:10017000AF0D3A200E30381CC728B70BCE283810E8
:100180000720A700A703A70327083A20CE28381D79
:10019000CE28381438110310AF0D3A2012303A1C13
:1001A000DB28B90BE2283A100720A700A703A70312
:1001B00027083A20E2283A1DE2283A143A1103109F
:1001C000AF0D3A2016303C1CEF28BB0BF6283C1034
:1001D0000720A700A703A70327083A20F6283C1DFD
:1001E000F6283C143C110310AF0D3A201A303E1C87
:1001F0000329BD0B0A293E100720A700A703A70368
:1002000027083A200A293E1D0A293E143E110310F0
:10021000AF0D3A201E30401C1729BF0B1E2940107D
:100220000720A700A703A70327083A201E29401D7F
:100230001E29401440110310AF0D3A202230421CF9
:100240002B29C10B322942100720A700A703A703BF
:1002500027083A203229421D322942144211031044
:10026000AF0D3A202630441C3F29C30B46294410C9
:100270000720A700A703A70327083A204629441D03
:100280004629441444110310AF0D3A202A30461C6D
:100290005329C50B5A2946100720A700A703A70317
:1002A00027083A205A29461D5A2946144611031098
:1002B000AF0D3A202E30481C6729C70B6E29481015
:1002C0000720A700A703A70327083A206E29481D87
:1002D0006E29481448110310AF0D3A20AA0B752956
:1002E000AB0B75292C1C62222C10220884002108DB
:1002F0008300A00E200E0900AE002C14AE1F8F2923
:10030000AC1070392D02031DA8292E080F39AF003B
:100310000B3C031CA8290310AF0DAC14A829AC1C7E
:10032000A829AC1003199F29053EB0003130840084
:100330002F08840730088000840A0015A82932306D
:1003400084002F08840780012F080720023E072021
:1003500008008316243098000A30990083129030E8
:1003600098008C30840080160B1708008C1E080043
:100370001A088C12B6291B224C22A921B6218518F5
:10038000BF29CE21BF298C1E08001A088C12981C88
:10039000CC2918121816C3297C21C329851DD229FE
:1003A000F2210C2A25180800240884008403031075
:1003B000840D32308407001808001F151F19DE292C
:1003C0001E08A6000310A60CA60A240884008403B5
:1003D0000310840D3130840726088000840A00153C
:1003E00025140800251C0800251024088400840317
:1003F0000310840D0030840704080310AF0D07209C
:10040000AF0AAF0A07202408840084030310840D78
:100410003230840780010800051E0F2A172AA5180C
:100420000800A514A40B08000C30A4000800A51CAB
:100430000800A5100800031383128B018C018D01A5
:100440008C30840080018D30840080015422013082
:10045000A4002510A510A601AD010430A900AA0131
:10046000AB016222831281309F0083160E309F0001
:100470001F30850000308600803087000030880003
:100480000910891009118030810083120F3081001A
:100490005422A0308B000800AD0105192D168519D6
:1004A000AD16051A2D1708001730A7000520A70B59
:1004B000562A052008001730A7000520A70B5D2A43
:1004C00005200800313084000C30A8008001840A27
:0C04D0008001840AA80B662A5422080050
:00000001FF
